S01C00004469676974616C5F436F6E74726F6C6C65725F312E7372656337
S1130000AFC300000C94670AC8C30000C6C3000055
S1130010C4C30000C2C300000C94F40ABEC30000B1
S1130020BCC30000BAC30000B8C30000B6C30000DC
S1130030B4C30000B2C30000B0C30000AEC30000EC
S1130040ACC30000AAC300000C943C0AA6C3000081
S11300500C94920AA2C30000A0C300009EC3000037
S11300609CC300009AC3000097C4000096C300001C
S113007094C3000092C3000090C300008EC300002C
S11300808CC300008AC3000088C30000E8043A055A
S11300903A053A053A053A053A053A05E8043A05B7
S11300A03A053A053A053A053A053A05EA043A05A5
S11300B03A053A053A053A053A053A053A053A0544
S11300C03A053A053A053A053A053A05EA043A0585
S11300D03A053A053A053A053A053A053A053A0524
S11300E03A053A053A053A053A053A0536053A0518
S11300F03A053A053A053A053A053A0513053A052B
S11301003A053A053A053A053A053A053A053A05F3
S11301103A053A053A053A053A053A0507053A0516
S11301203A053A053A053A053A053A0525050155D1
S1130130070000024F070000030607000004D10671
S1130140000005A7060000068B060000074907000B
S113015000084207000009390700000A2C070000C4
S11301600B210700000C180700000D120700000EF9
S1130170FB0600000FF206000010E106000011FB70
S113018006000012E405000013C506000014B606BC
S1130190000015C5060000169C06000017FB0600AB
S11301A00018F206000019860600001A81060000F5
S11301B01B7D0600001C750600001D680600001E5D
S11301C0640600001F5A0600002054060000214E59
S11301D00600002248060000234206000025090606
S11301E0000026FE050000242F060000272206003A
S11301F00028110600002AF905000029F205000074
S11302003EE40500003FDB05000044D7050000453F
S1130210CD05000046BD05000047AE05000048AA14
S11302200500004C9F0500004D900500004E7F0521
S113023000004F7205000054650500005559050083
S1130240005D490500005E090600002B0000FB0666
S11302502C00001E082D000099062E00009B062F7E
S113026000009D063000009F06310000A106320008
S113027000A306330000A506340000A706350000DD
S1130280A906360000AB06370000AD06380000AF03
S113029006390000B1063A0000B3063B0000B5067B
S11302A03C0000B7063D0000B906420000BB06430F
S11302B00000BD06400000BF06410000C106490021
S11302C000C3064A0000C5064B0000C706500000E4
S11302D0C906510000CB06520000CD06530000CFE2
S11302E006560000D106570000D306580000D50674
S11302F0590000D7065A0000D9065B0000DB065CF3
S11303000000DD065F0000DF06600000E10661001A
S113031000E30600000000000105020204030304D8
S1130320040404050504060604020303020403038B
S1130330050304060305020306020507070208086D
S1130340020909020A0A020B0B020C0C020D0D022F
S11303500707010D0801070901080A01090B010A31
S11303600C010B0D010C0803020903020A03020B22
S113037003020C03020D030203050E0E020F0F020B
S11303801010020E10010F0F010E0E01100E0302C9
S11303900F030210030204051111021212021313B7
S11303A00214140211110114120111140113130186
S11303B012110302120302140302130302050515AA
S11303C01502161602151601151501161603021547
S11303D00302060517170218180217170118180147
S11303E01717030218030207051919021A1A02192A
S11303F01A011919011A19052B1A052C08051B1BBA
S1130400021C1C021D1D021B1D011C1C011B1B01C7
S11304101D1B052D1C052E1D052F09051E1E021F63
S11304201F022020021E1E01201F011E20011F1E6C
S113043005302005311F0521210222220223230237
S1130440252502262602242402212401262601250C
S11304502501232301222201212101242105322205
S113046005332305342405272702282802272801D9
S11304702727012825053526053627053728053879
S11304800A052A2A022929022A29012A2A012929B4
S113049005392A053A0B053B0C053C0D053D0E05B7
S11304A03E3E023F3F023E3E013F3F013E3E05428B
S11304B03F05430F054010054111054444024545DD
S11304C0024646024747024848024444014845015F
S11304D04446014547014648014744054C4C024DFA
S11304E04D024E4E024F4F024C4C014F4D014C4EAB
S11304F0014D4F014E4C05504D05514E05524F05CF
S1130500534505564605574705545402555502545C
S113051054015555015454055855055948055A1266
S1130520054913054A14054B15055B16055C1705AB
S11305305D5D025E5E025D5D015E5E015D5D055FA7
S11305405E0560180561000000414D504C4954554A
S113055044452056414C554500414C504841205695
S1130560414C554500444F574E4C4F414420524551
S1130570430057494E4455502056414C554500447C
S11305804552495641544956452056414C5545001B
S1130590494E54454752414C2056414C554500471D
S11305A041494E2056414C55450052535400494E42
S11305B05445524E414C204D4F44454C00534D49F7
S11305C0544820505245444943544F5200524543E5
S11305D0555253494F4E00504944004455524154DA
S11305E0494F4E0053414D504C494E472054494DBC
S11305F04500454550524F4D005352414D00524520
S1130600534F4C5554494F4E00504552494F444561
S113061000545249414E474C452049534F43454CA1
S1130620450044454E542044452053434945004326
S1130630484F495345204F4620545249414E474C58
S11306404500332050574D00322050574D00312083
S113065050574D0052454C41590050574D20534579
S11306605455500044414300544845524D4F434F64
S113067055504C450043555252454E540041444355
S11306800054494D4500444154450053494E555387
S11306902047454E45524154494F4E0053494E550B
S11306A053204D4F44450050574D2047454E455229
S11306B04154494F4E004155544F4D4154494320F4
S11306C04D4F4445004D414E55414C204D4F4445FE
S11306D0004449474954414C20434F4E54524F4CD7
S11306E0005452414E53464552204F4620444154F3
S11306F041004F4E202F204F464600504152414D5D
S113070045544552530044415441204C4F474745BA
S11307105200444542554700434F4E5452415354AE
S1130720004D4F4E49544F52494E470044415441A5
S11307302053544F52414745004143545541544F6F
S1130740520053454E534F5200434C4F434B0053BA
S1130750455455500057454C434F4D45202100000A
S113076011241FBECFEFD0E4DEBFCDBF11E0A0E067
S1130770B1E0EAE4F7E100E00BBF02C007900D929C
S1130780A834B107D9F721E0A8E4B1E001C01D9273
S1130790AD3DB207E1F7B9D2D6C732CCEAE7F0E013
S11307A080818F77808380818460808380818D7F46
S11307B0808380818E7F8083ECE7F0E080818F7777
S11307C0808380818064808380818F7D808308958D
S11307D02DEC629F212D1124922F96959695969536
S11307E0990F392F330F330F930F362F391B932F54
S11307F0269526952695833018F08450833028F466
S113080080E1289FB0011124692B862F08950F934E
S11308101F93CF93DF93062F142FCEE5D1E090EDF5
S1130820988394E09983682F84E0D2DF8A83602FD1
S113083085E0CEDF8B83612F86E0CADF8C8365E0A1
S1130840CE017ED083E091E016D78DE00DD7DF9105
S1130850CF911F910F9108950F931F93CF93DF931F
S1130860062F142FCEE5D1E090ED98831982682FDE
S113087080E0AEDF8A83602F81E0AADF8B83612F63
S113088082E0A6DF8C8365E0CE015AD083E091E05C
S1130890F2D68DE0E9D6DF91CF911F910F910895A3
S11308A08AB180688AB98BB18F778BB98AB18B7F13
S11308B08AB98BB184608BB98DB381608DBBE9E655
S11308C0F0E080818260808380818E7F808387B125
S11308D0877F87B987B18F7E87B987B18F7D87B9C5
S11308E087B18F7B87B987B18F7787B988B18860E3
S11308F088B988B1806188B988B1806288B988B1C3
S1130900806488B988B1806888B9E8E6F0E08081BD
S113091084608083EDE6F0E080818860808380815C
S11309208061808380818062808380818064808311
S113093080818068808308958091BC0081700895CF
S11309401F93CF93DF93EC01162FF6DF8111FDCFB8
S113095010936B01888180936C01888180FF0DC0A6
S11309600FC0822F90E0FE01E80FF91F3081FC01D7
S1130970E459FE4F30832F5F01C021E0211788F333
S11309801092490188EF8093000185EA8093BC00AE
S1130990DF91CF911F9108951F920F920FB60F927E
S11309A011240BB60F922F933F938F939F93AF9382
S11309B0BF93EF93FF93E091B9008E2F90E0FC0179
S11309C03897E135F10508F055C0EA5BFF4F78C66A
S11309D010924801E091480180916B01E81770F48E
S11309E081E08E0F80934801F0E0E459FE4F80814E
S11309F08093BB0085E88093BC0043C0809149018B
S1130A0081608093490184E98093BC003AC0E091FD
S1130A10480181E08E0F80934801F0E08091BB0093
S1130A20E459FE4F80832091480130E080916B01AE
S1130A3090E001972817390724F485EC8093BC00D3
S1130A4020C085E88093BC001CC0E0914801F0E020
S1130A508091BB00E459FE4F8083809149018160FD
S1130A608093490184E98093BC000BC085EA80939C
S1130A70BC0007C08091B9008093000184E080939A
S1130A80BC00FF91EF91BF91AF919F918F913F91E6
S1130A902F910F900BBE0F900FBE0F901F901895C3
S1130AA082B1846082B900C082B18B7F82B908951B
S1130AB0CF93C82F662321F082B1816082B903C02D
S1130AC082B18E7F82B982B18D7F82B981B1886013
S1130AD081B981B1806181B981B1806281B981B10B
S1130AE0806481B982B18F7B82B982B18F7D82B9F2
S1130AF082B18F7E82B982B1877F82B9CC231CF404
S1130B0082B1806482B9C6FF03C082B1806282B9B7
S1130B10C5FF03C082B1806182B9C4FF03C082B142
S1130B20886082B9BDDF82B18F7B82B982B18F7D4B
S1130B3082B982B18F7E82B982B1877F82B9C3FFC5
S1130B4003C082B1806482B9C2FF03C082B18062F3
S1130B5082B9C1FF03C082B1806182B9C0FF03C002
S1130B6082B1886082B99CDF82B1886082B982B127
S1130B70806182B982B1806282B982B1806482B9B3
S1130B80CF910895882321F082B1816082B903C096
S1130B9082B18E7F82B982B1826082B981B1877F4E
S1130BA081B981B18F7E81B981B18F7D81B981B1E4
S1130BB08F7B81B982B1846082B900C0039902C07D
S1130BC080E001C080E104998062059980640699FF
S1130BD0806892B19B7F92B900C092B1946092B93F
S1130BE000C0039981600499826005998460069924
S1130BF0886092B19B7F92B9089580E0C3DF882317
S1130C00E4F384E090E00197F1F780E0BBCF08952E
S1130C10CF93C82FF2DF60E08C2F4ADFCF91089585
S1130C20611103C08058F4CF08958054F1CF089522
S1130C3081E0EECF0895CF93C82FDFDFCA3041F4AF
S1130C40803410F480E401C080E08058E1DF03C008
S1130C5061E08C2F2DDFCF910895CF93DF93FC01BA
S1130C6002C0E9DFFE01EF01219680818111F9CFF5
S1130C70DF91CF9108951F93CF93DF93182F81B104
S1130C80816081B981B1826081B981B1846081B9A7
S1130C9081B1886081B981B1806181B981B180629B
S1130CA081B981B1806481B980E09DE70197F1F752
S1130CB082B1806182B982B1886082B9F1DE80E05C
S1130CC097E20197F1F7ECDEC0E8D0E0CE0101979E
S1130CD0F1F7E6DECE010197F1F782B1877F82B9A1
S1130CE0DFDE2197F1F788E293DF88E091DFA0DF70
S1130CF086E08EDF812F8CDFDF91CF911F910895E5
S1130D008BB180588BB908950895CADD8CE0B3DFA8
S1130D108FDF44DDB4D264EF71E080E896E0C3D2A3
S1130D208093580184E896E0E9D212D380E090E001
S1130D30089589E0089589E0089589E008958AE096
S1130D4008958AE008958AE008958AE008958AE083
S1130D5008958AE008958FE108958AE008958AE06D
S1130D6008958BE008958BE008958CE008958DE05C
S1130D70089582E008958FE008958FE0089580E15A
S1130D80089583E0089583E1089584E1089583E15B
S1130D9008958DE408958EE408958FE4089582E122
S1130DA0089582E1089582E1089585E5089582E138
S1130DB0089582E1089585E0089585E0089588E125
S1130DC0089588E1089586E00895613049F062301D
S1130DD089F40197415051098417950759F407C0C4
S1130DE001962F5F3F4F8217930721F402C0C90178
S1130DF00895CA0108951F93CF93DF93CDB7DEB74B
S1130E002C970FB6F894DEBF0FBECDBF90910201B0
S1130E10992309F451C08FE090E090935701809397
S1130E20560186E090E0909355018093540187E148
S1130E3090E09093530180935201109251014AE043
S1130E40BE016F5F7F4F8FE090E04AD44AE0BE015D
S1130E506B5F7F4F809154019091550141D44AE0DA
S1130E60BE01675F7F4F809152019091530138D446
S1130E70F89461E080E0D4DE87E191E0EEDE7894DE
S1130E80F89461E080E0CCDECE010196E6DE789451
S1130E90F89461E084E0C4DECE010596DEDE789449
S1130EA0F89461E086E0BCDECE010996D6DE789443
S1130EB0109202018BE2B8C0853009F4A8C08330D7
S1130EC019F0843039F010C09091510191509093F1
S1130ED051010AC0909151019F5F90935101933049
S1130EE018F092E09093510190915101913099F151
S1130EF020F0923009F45DC096C02FE130E041E06B
S1130F0050E0682F80915601909157015EDF9093D5
S1130F105701809356010A9754F4F89461E080E0F5
S1130F207FDE80E090E099DE789411E001C010E06B
S1130F304AE0BE016F5F7F4F809156019091570147
S1130F40CFD3F89461E0812F6BDECE01019685DE6C
S1130F5078948BE269C02CE030E041E050E0682FE7
S1130F60809154019091550130DF90935501809305
S1130F7054010A9754F4F89461E083E051DE80E070
S1130F8090E06BDE789414E001C013E04AE0BE0107
S1130F906B5F7F4F8091540190915501A1D3F894D8
S1130FA061E0812F3DDECE01059657DE78948BE219
S1130FB03BC023E630E040E050E0682F80915201CE
S1130FC09091530102DF90935301809352010A9749
S1130FD054F4F89461E086E023DE80E090E03DDEA6
S1130FE0789417E001C016E04AE0BE01675F7F4FC6
S1130FF0809152019091530173D3F89461E0812F51
S11310000FDECE01099629DE78948BE20DC0409163
S113101052016091540180915601F9DB81E0809383
S113102002018AE101C08BE22C960FB6F894DEBF70
S11310300FBECDBFDF91CF911F9108951F93CF9322
S1131040DF93CDB7DEB72C970FB6F894DEBF0FBE93
S1131050CDBF90910101992309F44FC08EE190E036
S11310609093500180934F0190934E0180934D01D2
S11310708CE090E090934C0180934B0110924A01D4
S11310804AE0BE016F5F7F4F8EE190E029D34AE0D2
S1131090BE016B5F7F4F80914D0190914E0120D333
S11310A04AE0BE01675F7F4F80914B0190914C01F4
S11310B017D3F89461E080E0B3DD88E291E0CDDD00
S11310C07894F89461E080E0ABDDCE010996C5DD4B
S11310D07894F89461E083E0A3DDCE010596BDDD4C
S11310E07894F89461E086E09BDDCE010196B5DD4D
S11310F07894109201018CE2B8C0853009F4A8C03C
S1131100833019F0843039F010C090914A01915025
S113111090934A010AC090914A019F5F90934A01BB
S1131120933018F092E090934A0190914A019130E3
S113113099F108F45FC0923009F096C02BE330E0D7
S113114040E050E0682F80914F01909150013DDEC6
S11311509093500180934F010A9754F4F89461E0FE
S113116086E05EDD80E090E078DD789417E001C0F1
S113117016E04AE0BE016F5F7F4F80914F0190916E
S11311805001AED2F89461E0812F4ADDCE01019680
S113119064DD78948CE269C02BE330E040E050E0F9
S11311A0682F80914D0190914E010FDE90934E0176
S11311B080934D010A9754F4F89461E083E030DDA4
S11311C080E090E04ADD789414E001C013E04AE046
S11311D0BE016B5F7F4F80914D0190914E0180D293
S11311E0F89461E0812F1CDDCE01059636DD7894FC
S11311F08CE23BC023E630E040E050E0682F809171
S11312004B0190914C01E1DD90934C0180934B0193
S11312100A9754F4F89461E080E002DD80E090E005
S11312201CDD789411E001C010E04AE0BE01675F64
S11312307F4F80914B0190914C0152D2F89461E020
S1131240812FEEDCCE01099608DD78948CE20DC086
S113125040914B0160914D0180914F01FDDA81E095
S11312608093010188E001C08CE22C960FB6F894BB
S1131270DEBF0FBECDBFDF91CF911F91089580E0F7
S113128009C0E82FF0E0EE0FFF1FEA58FE4F11826D
S113129010828F5F8A30A8F310928B0110928A011A
S11312A01092CB01089520E030E002C02F5F3F4F41
S11312B0F901EE0FFF1FEA58FE4F40815181452B83
S11312C019F02B30310590F32B303105A8F4A90126
S11312D0440F551FFA01EA58FE4F91838083FA01A7
S11312E0ED55FE4F71836083FA01E954FE4F11827C
S11312F0108281E0820F08958FEF089590938B01FF
S113130080938A01089590E016C08E1313C0F901EA
S1131310EE0FFF1FE20FF31FE75EFC4FE491E613AD
S113132009C0F901EE0FFF1FE20FF31FE65EFC4F49
S1131330849108959F5F292F30E0F901EE0FFF1F7C
S1131340E20FF31FE85EFC4FE491E111DECF089554
S113135079D1A4D181E080938D017894C12CD12CD2
S1131360C5E5D7E0EE24E39410E026C0212F30E059
S1131370F901EE0FFF1FEA58FE4F0190F081E02DB6
S11313803097C9F0C901880F991FDC01A954BE4FD9
S11313904D915C91DC01AD55BE4F8D919C914817E8
S11313A0590748F0220F331FD901A954BE4F119693
S11313B01C921E9209951F5F1A30C0F28091CB01D6
S11313C0882359F01092CB01E0918A01F0918B01AE
S11313D0309719F08EE891E00995209769F0F89418
S11313E027DC60E080E01CDCBE018CEC91E071D174
S11313F034DC7894C0E0D0E080918C0110928C01B0
S1131400C114D10421F0F6010995E82E07C0882300
S113141029F0682F80918D0176DFE82E80918D016F
S1131420E81609F4A1CFE0928D0120E016C0EE1277
S113143013C0FC01EE0FFF1FEE0FFF1F8E0F9F1F47
S1131440FC01E15DFE4FC591D4918F5C9E4FFC0180
S113145005911491680188CF2F5F822F90E0FC01E1
S1131460EE0FFF1FEE0FFF1FE80FF91FE25DFE4FA7
S1131470E491E111DCCF78CF1F920F920FB60F9257
S113148011240BB60F922F933F938F93EF93FF93F7
S113149083E886BD80E00DC0E82FF0E0EE0FFF1F6B
S11314A0E954FE4F208131812F5F3F4F31832083E8
S11314B08F5F8A3088F3FF91EF918F913F912F9145
S11314C00F900BBE0F900FBE0F901F9018951F9298
S11314D00F920FB60F9211240BB60F922F933F93D6
S11314E04F935F936F937F938F939F93AF93BF9328
S11314F0EF93FF938AE391E0BED08DE0B5D0FF91E6
S1131500EF91BF91AF919F918F917F916F915F9177
S11315104F913F912F910F900BBE0F900FBE0F90E4
S11315201F9018951F920F920FB60F9211240BB6AD
S11315300F922F933F934F935F936F937F938F9368
S11315409F93AF93BF93EF93FF93E0915901F0E022
S11315508091C600E257FE4F8083E0915901F0E08C
S1131560E257FE4F80818034E1F4E0915901F0E0CC
S1131570E257FE4F808178D0E0915901EF5FE0930C
S11315805901F0E0E257FE4F108281E08093CB01D5
S1131590109259018DE068D08AE066D08EE364D061
S11315A010C0E0915901F0E0E257FE4F80815CD019
S11315B0809159018F5F80935901843110F010920A
S11315C05901FF91EF91BF91AF919F918F917F91BD
S11315D06F915F914F913F912F910F900BBE0F90A0
S11315E00FBE0F901F9018951F920F920FB60F9277
S11315F011248F9386B1809583FF04C081E080938A
S11316008C011AC084FF04C082E080938C0114C052
S113161085FF04C083E080938C010EC086FF04C064
S113162084E080938C0108C0882324F485E08093AF
S11316308C0102C010928C018F910F900FBE0F90FD
S11316401F90189514BC85B58B7F85BD85B58260C8
S113165085BD85B5816085BD83E886BDEEE6F0E095
S113166080818160808308959091C00095FFFCCFB4
S11316708093C60008951F93CF93DF93EC0111E08C
S113168007C08881882319F02196EEDF01C010E09D
S11316901111F7CFDF91CF911F910895E0ECF0E0A5
S11316A080818260808388E090E09093C50080937D
S11316B0C40088E98093C10086E08093C200089545
S11316C0EE0FFF1F0024001C0BBE0790F691E02DC7
S11316D00994FB01DC0105900D920020E1F70895C7
S11316E0BB274A3031F4992322F4BDE290958195C9
S11316F09F4F01C0BB27FB015527AA27880F991FBD
S1131700AA1FA41710F0A41B83955051B9F7A05D2C
S1131710AA3308F0A95DA193009779F7B111B193A9
S11317201192CB0100C0DC01FC01672F719177237A
S1131730E1F7329704C07C916D9370836291AE1788
S10D1740BF07C8F30895F894FFCF23
S113174AF80101436C6F636B2053657400416C614B
S113175A726D207365740020202D20202D202020F6
S113176A202020202020200020206820206D2020F6
S113177A73202020202020202000416C61726D6596
S10B178A20736F6E6E65000010
S9030000FC
