:100000005EC30000FBC5000077C3000075C300009D
:1000100073C3000071C300005DC600006DC3000023
:100020006BC3000069C3000067C3000065C3000024
:1000300063C3000061C300005FC300005DC3000034
:100040005BC3000059C30000AEC5000055C30000EB
:10005000DFC5000051C300004FC300004DC30000C6
:100060004BC3000049C3000047C3000045C3000064
:1000700043C3000041C300003FC300003DC3000074
:100080003BC3000039C3000037C3000001B30600C2
:100090000002AD0600000364060000042F06000005
:1000A000050506000006E905000007A70600000890
:1000B000A006000009970600000A8A0600000B7FD0
:1000C0000600000C760600000D700600000E5906B2
:1000D00000000F50060000103F06000011590600F6
:1000E000001242050000132306000014140600004D
:1000F000152306000016FA0500001759060000181F
:100100005006000019E40500001ADF0500001BDBA3
:100110000500001CD30500001DC60500001EC20519
:1001200000001FB805000020B205000021AC05004A
:100130000022A605000023A0050000256705000099
:10014000265C050000248D0500002780050000289E
:100150006F0500002A5705000029500500003E42A7
:100160000500003F390500004435050000452B051A
:100170000000461B050000470C050000480805006C
:10018000004CFD0400004DEE0400004EDD040000B4
:100190004FD004000054C304000055B70400005DB4
:1001A000A70400005E670500002B000086042C00F9
:1001B0000088042D00008A042E00008C042F00000B
:1001C0008E0430000090043100009204320000944C
:1001D00004330000960434000098043500009A04AB
:1001E0003600009C043700009E04380000A004394B
:1001F0000000A2043A0000A4043B0000A6043C0056
:1002000000A8043D0000AA04420000AC0443000022
:10021000AE04400000B004410000B204490000B444
:10022000044A0000B6044B0000B804500000BA04B1
:10023000510000BC04520000BE04530000C004562C
:100240000000C204570000C404580000C60459004E
:1002500000C8045A0000CA045B0000CC045C000023
:10026000CE045F0000D004600000D204610000D41E
:10027000040000000000010502020403030404045A
:100280000405050406060402030302040303050330
:10029000040603050203060205070702080802090F
:1002A00009020A0A020B0B020C0C020D0D020707D1
:1002B000010D0801070901080A01090B010A0C01D7
:1002C0000B0D010C0803020903020A03020B0302CF
:1002D0000C03020D030203050E0E020F0F02101095
:1002E000020E10010F0F010E0E01100E03020F037C
:1002F0000210030204051111021212021313021458
:10030000140211110114120111140113130112111D
:10031000030212030214030213030205051515025A
:1003200016160215160115150116160302150302FD
:1003300006051717021818021717011818011717C2
:10034000030218030207051919021A1A02191A01E1
:100350001919011A19052B1A052C08051B1B021C5B
:100360001C021D1D021B1D011C1C011B1B011D1B52
:10037000052D1C052E1D052F09051E1E021F1F021F
:100380002020021E1E01201F011E20011F1E0530FD
:100390002005311F052121022222022323022525C7
:1003A00002262602242402212401262601252501D5
:1003B0002323012222012121012421053222053398
:1003C0002305342405272702282802272801272768
:1003D00001282505352605362705372805380A055D
:1003E0002A2A022929022A29012A2A01292905392A
:1003F0002A053A0B053B0C053C0D053D0E053E3E1E
:10040000023F3F023E3E013F3F013E3E05423F0567
:10041000430F05401005411105444402454502467D
:1004200046024747024848024444014845014446C1
:10043000014547014648014744054C4C024D4D02D9
:100440004E4E024F4F024C4C014F4D014C4E014D50
:100450004F014E4C05504D05514E05524F05534529
:100460000556460557470554540255550254540144
:100470005555015454055855055948055A12054912
:1004800013054A14054B15055B16055C17055D5DE4
:10049000025E5E025D5D015E5E015D5D055F5E05A3
:1004A00060180561000000414D504C4954554445C9
:1004B0002056414C554500414C5048412056414C36
:1004C000554500444F574E4C4F4144205245430040
:1004D00057494E4455502056414C554500444552CD
:1004E000495641544956452056414C554500494EC0
:1004F00054454752414C2056414C554500474149CF
:100500004E2056414C55450052535400494E5445D7
:10051000524E414C204D4F44454C00534D49544898
:1005200020505245444943544F520052454355527E
:1005300053494F4E00504944004455524154494F8D
:100540004E0053414D504C494E472054494D4500B3
:10055000454550524F4D005352414D005245534F67
:100560004C5554494F4E00504552494F4445005454
:100570005249414E474C452049534F43454C450055
:1005800044454E5420444520534349450043484F79
:10059000495345204F4620545249414E474C45004F
:1005A000332050574D00322050574D0031205057C6
:1005B0004D0052454C41590050574D20534554551C
:1005C000500044414300544845524D4F434F55500D
:1005D0004C450043555252454E540041444300544B
:1005E000494D4500444154450053494E5553204719
:1005F000454E45524154494F4E0053494E555320A4
:100600004D4F44450050574D2047454E45524154AB
:10061000494F4E004155544F4D41544943204D4F91
:100620004445004D414E55414C204D4F44450044FA
:1006300049474954414C20434F4E54524F4C00546B
:1006400052414E53464552204F46204441544100AA
:100650004F4E202F204F464600504152414D4554A9
:100660004552530044415441204C4F4747455200A6
:10067000444542554700434F4E5452415354004D58
:100680004F4E49544F52494E470044415441205324
:10069000544F52414745004143545541544F520035
:1006A00053454E534F5200434C4F434B0053455418
:1006B00055500057454C434F4D4520210000112413
:1006C0001FBECFEFD0E4DEBFCDBF11E0A0E0B1E0B0
:1006D000ECEAFDE000E00BBF02C007900D92A430F1
:1006E000B107D9F721E0A4E0B1E001C01D92AE3618
:1006F000B207E1F7F4D058C383CCEAE7F0E0808199
:100700008F77808380818460808380818D7F8083E8
:1007100080818E7F8083ECE7F0E080818F7780831B
:1007200080818064808380818F7D808308958AB1F9
:1007300080688AB98BB18F778BB987B1877F87B98A
:1007400087B18F7E87B987B18F7D87B987B18F7B5E
:1007500087B987B18F7787B988B1886088B988B140
:10076000806188B988B1806288B988B1806488B9AD
:1007700088B1806888B9E8E6F0E080818460808391
:10078000EDE6F0E0808188608083808180618083F5
:1007900080818062808380818064808380818068A2
:1007A0008083089522B18F7090E0880F991F880F81
:1007B000991F880F991F2778822B82B982B18B7F6E
:1007C00082B982B1846082B982B18B7F82B989EEAD
:1007D0008A95F1F700000895CF93C82F662321F082
:1007E00082B1816082B903C082B18E7F82B982B149
:1007F0008D7F82B98C2F82958F70D4DF8C2FD2DFC2
:10080000CF91089560E0E8CF089561E0E5CF0895C5
:1008100081B18F6781B985EA9EE00197F1F700C049
:10082000000082B1887F82B980E094E00197F1F7FF
:1008300000C0000083E0B6DF80E094E00197F1F7AC
:1008400000C0000083E0AEDF80E094E00197F1F7A4
:1008500000C0000083E0A6DF80E094E00197F1F79C
:1008600000C0000082E09EDF88E2CCDF109204012D
:1008700088E0C8CF089580910401982F94609093E8
:1008800004018C60BFCF089581E0BCDF83EF91E06D
:100890000197F1F700C000000895809104018D7F59
:1008A000809304018860AECF0895E62FF0E0E05019
:1008B000FF4F9081890F8068A5CF0895CF93DF9374
:1008C000EC0102C0A2DF219688818111FBCFDF916C
:1008D000CF9108958BB180588BB90895089527DF83
:1008E00097DFC9DFDADF60E080E0DFDF06DF5ED0C0
:1008F00064EF71E08AE694E06DD0809305018EE6A6
:1009000094E093D0BCD080E090E008958AE108950F
:1009100087E0089589E0089589E0089589E00895C1
:100920008AE008958AE008958AE008958AE00895AB
:100930008AE008958AE008958FE108958AE0089595
:100940008AE008958BE008958BE008958CE0089587
:100950008DE0089582E008958FE008958FE0089576
:1009600080E1089583E0089583E1089584E1089586
:1009700083E108958DE408958EE408958FE4089549
:1009800082E1089582E1089582E1089585E5089560
:1009900082E1089582E1089585E0089585E0089553
:1009A00088E1089588E1089586E0089580E009C00F
:1009B000E82FF0E0EE0FFF1FE95FFE4F118210827B
:1009C0008F5F8A30A8F310921C0110921B011092C5
:1009D0005C01089520E030E002C02F5F3F4FF90135
:1009E000EE0FFF1FE95FFE4F40815181452B19F04B
:1009F0002B30310590F32B303105A8F4A901440FB9
:100A0000551FFA01E95FFE4F91838083FA01EC5C88
:100A1000FE4F71836083FA01E85BFE4F1182108202
:100A200081E0820F08958FEF089590931C018093C9
:100A30001B01089590E016C08E1313C0F901EE0F4C
:100A4000FF1FE20FF31FE958FD4FE491E61309C0C1
:100A5000F901EE0FFF1FE20FF31FE858FD4F8491DD
:100A600008959F5F292F30E0F901EE0FFF1FE20F7D
:100A7000F31FEA58FD4FE491E111DECF089558D1FC
:100A80007AD181E080931E017894C12CD12CC3EBE4
:100A9000D6E0EE24E39410E026C0212F30E0F901E7
:100AA000EE0FFF1FE95FFE4F0190F081E02D3097C0
:100AB000C9F0C901880F991FDC01A85BBE4F4D9199
:100AC0005C91DC01AC5CBE4F8D919C91481759073D
:100AD00048F0220F331FD901A85BBE4F11961C921C
:100AE0001E9209951F5F1A30C0F280915C01882325
:100AF00059F010925C01E0911B01F0911C013097BC
:100B000019F08FE191E00995209769F0F894BCDE27
:100B100060E081E0CADEBE018DE591E03ED1CEDE2F
:100B20007894C0E0D0E080911D0110921D01C114A5
:100B3000D10421F0F6010995E82E07C0882329F099
:100B4000682F80911E0176DFE82E80911E01E81645
:100B500009F4A1CFE0921E0120E016C0EE1213C0EE
:100B6000FC01EE0FFF1FEE0FFF1F8E0F9F1FFC01FA
:100B7000E357FF4FC591D49181579F4FFC010591D9
:100B80001491680188CF2F5F822F90E0FC01EE0F57
:100B9000FF1FEE0FFF1FE80FF91FE457FF4FE4910F
:100BA000E111DCCF78CF1F920F920FB60F92112474
:100BB0000BB60F922F933F938F93EF93FF9383E89E
:100BC00086BD80E00DC0E82FF0E0EE0FFF1FE85B70
:100BD000FE4F208131812F5F3F4F318320838F5F14
:100BE0008A3088F3FF91EF918F913F912F910F9071
:100BF0000BBE0F900FBE0F901F9018951F920F9273
:100C00000FB60F9211240F900FBE0F901F901895E2
:100C10001F920F920FB60F9211240BB60F922F93C3
:100C20003F934F935F936F937F938F939F93AF9374
:100C3000BF93EF93FF93E0910601F0E08091C6002F
:100C4000E15EFE4F8083E0910601F0E0E15EFE4F41
:100C500080818034E1F4E0910601F0E0E15EFE4F36
:100C6000808182D0E0910601EF5FE0930601F0E021
:100C7000E15EFE4F108281E080935C0110920601DC
:100C80008DE072D08AE070D08EE36ED010C0E0911B
:100C90000601F0E0E15EFE4F808166D080910601A2
:100CA0008F5F80930601843110F010920601FF914E
:100CB000EF91BF91AF919F918F917F916F915F91D4
:100CC0004F913F912F910F900BBE0F900FBE0F9041
:100CD0001F9018951F920F920FB60F9211248F93A9
:100CE00086B1809583FF04C081E080931D011AC006
:100CF00084FF04C082E080931D0114C085FF04C0FE
:100D000083E080931D010EC086FF04C084E08093C1
:100D10001D0108C0882324F485E080931D0102C0D2
:100D200010921D018F910F900FBE0F901F9018957C
:100D300084B58B7F84BD84B5826084BD84B58E7F8D
:100D400084BD85B58B7F85BD85B5826085BD85B544
:100D50008E7F85BD83E886BDEEE6F0E081E080838E
:100D600080818160808308959091C00095FFFCCFC1
:100D70008093C6000895E0ECF0E08081826080837B
:100D80008CE090E09093C5008093C40088E9809344
:100D9000C10086E08093C2000895FB01DC0105904C
:0C0DA0000D920020E1F70895F894FFCFB9
:040DAC00004014549B
:00000001FF
