S01C00004469676974616C5F436F6E74726F6C6C65725F312E7372656337
S11300005EC3000083C600006AC3000068C300002A
S113001066C3000064C30000E5C6000060C30000BE
S11300205EC300005CC300005AC3000058C3000054
S113003056C3000054C3000052C3000050C3000064
S11300404EC300004CC3000036C6000048C3000085
S113005067C6000044C3000042C3000040C3000060
S11300603EC300003CC300003AC3000038C3000094
S113007036C3000034C3000032C3000030C30000A4
S11300802EC300002CC300002AC3000001B30600E5
S11300900002AD0600000364060000042F06000001
S11300A0050506000006E905000007A7060000088C
S11300B0A006000009970600000A8A0600000B7FCC
S11300C00600000C760600000D700600000E5906AE
S11300D000000F50060000103F06000011590600F2
S11300E00012420500001323060000141406000049
S11300F0152306000016FA0500001759060000181B
S11301005006000019E40500001ADF0500001BDB9F
S11301100500001CD30500001DC60500001EC20515
S113012000001FB805000020B205000021AC050046
S11301300022A605000023A0050000256705000095
S1130140265C050000248D0500002780050000289A
S11301506F0500002A5705000029500500003E42A3
S11301600500003F390500004435050000452B0516
S11301700000461B050000470C0500004808050068
S1130180004CFD0400004DEE0400004EDD040000B0
S11301904FD004000054C304000055B70400005DB0
S11301A0A70400005E670500002B00000E052C006C
S11301B00010052D000012052E000014052F00006C
S11301C0160530000018053100001A053200001C25
S11301D0053300001E05340000200535000022050B
S11301E036000024053700002605380000280539AC
S11301F000002A053A00002C053B00002E053C00B7
S11302000030053D00003205420000340543000083
S1130210360540000038054100003A054900003C1D
S1130220054A00003E054B00004005500000420511
S1130230510000440552000046055300004805568D
S113024000004A055700004C055800004E055900AF
S11302500050055A000052055B000054055C000084
S113026056055F000058056000005A056100005CF7
S11302700500000000000105020204030304040455
S1130280040505040606040203030204030305032C
S1130290040603050203060205070702080802090B
S11302A009020A0A020B0B020C0C020D0D020707CD
S11302B0010D0801070901080A01090B010A0C01D3
S11302C00B0D010C0803020903020A03020B0302CB
S11302D00C03020D030203050E0E020F0F02101091
S11302E0020E10010F0F010E0E01100E03020F0378
S11302F00210030204051111021212021313021454
S11303001402111101141201111401131301121119
S11303100302120302140302130302050515150256
S113032016160215160115150116160302150302F9
S113033006051717021818021717011818011717BE
S1130340030218030207051919021A1A02191A01DD
S11303501919011A19052B1A052C08051B1B021C57
S11303601C021D1D021B1D011C1C011B1B011D1B4E
S1130370052D1C052E1D052F09051E1E021F1F021B
S11303802020021E1E01201F011E20011F1E0530F9
S11303902005311F052121022222022323022525C3
S11303A002262602242402212401262601252501D1
S11303B02323012222012121012421053222053394
S11303C02305342405272702282802272801272764
S11303D001282505352605362705372805380A0559
S11303E02A2A022929022A29012A2A012929053926
S11303F02A053A0B053B0C053C0D053D0E053E3E1A
S1130400023F3F023E3E013F3F013E3E05423F0563
S1130410430F054010054111054444024545024679
S113042046024747024848024444014845014446BD
S1130430014547014648014744054C4C024D4D02D5
S11304404E4E024F4F024C4C014F4D014C4E014D4C
S11304504F014E4C05504D05514E05524F05534525
S11304600556460557470554540255550254540140
S11304705555015454055855055948055A1205490E
S113048013054A14054B15055B16055C17055D5DE0
S1130490025E5E025D5D015E5E015D5D055F5E059F
S11304A060180561000000414D504C4954554445C5
S11304B02056414C554500414C5048412056414C32
S11304C0554500444F574E4C4F414420524543003C
S11304D057494E4455502056414C554500444552C9
S11304E0495641544956452056414C554500494EBC
S11304F054454752414C2056414C554500474149CB
S11305004E2056414C55450052535400494E5445D3
S1130510524E414C204D4F44454C00534D49544894
S113052020505245444943544F520052454355527A
S113053053494F4E00504944004455524154494F89
S11305404E0053414D504C494E472054494D4500AF
S1130550454550524F4D005352414D005245534F63
S11305604C5554494F4E00504552494F4445005450
S11305705249414E474C452049534F43454C450051
S113058044454E5420444520534349450043484F75
S1130590495345204F4620545249414E474C45004B
S11305A0332050574D00322050574D0031205057C2
S11305B04D0052454C41590050574D205345545518
S11305C0500044414300544845524D4F434F555009
S11305D04C450043555252454E5400414443005447
S11305E0494D4500444154450053494E5553204715
S11305F0454E45524154494F4E0053494E555320A0
S11306004D4F44450050574D2047454E45524154A7
S1130610494F4E004155544F4D41544943204D4F8D
S11306204445004D414E55414C204D4F44450044F6
S113063049474954414C20434F4E54524F4C005467
S113064052414E53464552204F46204441544100A6
S11306504F4E202F204F464600504152414D4554A5
S11306604552530044415441204C4F4747455200A2
S1130670444542554700434F4E5452415354004D54
S11306804F4E49544F52494E470044415441205320
S1130690544F52414745004143545541544F520031
S11306A053454E534F5200434C4F434B0053455414
S11306B055500057454C434F4D452021000011240F
S11306C01FBECFEFD0E4DEBFCDBF21E0A0E0B1E09C
S11306D001C01D92A936B207E1F78CD1E3C390CCD7
S11306E0EAE7F0E080818F77808380818460808373
S11306F080818D7F808380818E7F8083ECE7F0E032
S113070080818F77808380818064808380818F7DE6
S1130710808308958AB180688AB98BB18F778BB949
S113072087B1877F87B987B18F7E87B987B18F7D7E
S113073087B987B18F7B87B987B18F7787B988B13C
S1130740886088B988B1806188B988B1806288B9C5
S113075088B1806488B988B1806888B9E8E6F0E037
S1130760808184608083EDE6F0E08081886080830E
S113077080818061808380818062808380818064C5
S11307808083808180688083089582B1846082B987
S113079000C082B18B7F82B90895CF93C82F66239E
S11307A021F082B1816082B903C082B18E7F82B9A7
S11307B082B18D7F82B981B1886081B981B1806154
S11307C081B981B1806281B981B1806481B982B11A
S11307D08F7B82B982B18F7D82B982B18F7E82B9DB
S11307E082B1877F82B9CC231CF482B1806482B940
S11307F0C6FF03C082B1806282B9C5FF03C082B163
S1130800806182B9C4FF03C082B1886082B9BDDF50
S113081082B18F7B82B982B18F7D82B982B18F7EA2
S113082082B982B1877F82B9C3FF03C082B1806479
S113083082B9C2FF03C082B1806282B9C1FF03C022
S113084082B1806182B9C0FF03C082B1886082B97D
S11308509CDF82B1886082B982B1806182B982B141
S1130860806282B982B1806482B9CF91089588236D
S113087021F082B1816082B903C082B18E7F82B9D6
S113088082B1826082B981B1877F81B981B18F7E63
S113089081B981B18F7D81B981B18F7B81B982B1F9
S11308A0846082B900C0039902C080E001C080E185
S11308B004998062059980640699806892B19B7F4F
S11308C092B900C092B1946092B900C0039981605A
S11308D004998260059984600699886092B19B7F2F
S11308E092B9089580E0C3DF8823E4F384E090E0C4
S11308F00197F1F780E0BBCF0895CF93C82FF2DFC3
S113090060E08C2F4ADFCF910895611103C08058B5
S1130910F4CF08958054F1CF089581E0EECF089587
S1130920CF93C82FDFDFCA3041F4803410F480E461
S113093001C080E08058E1DF03C061E08C2F2DDF2F
S1130940CF910895CF93DF93FC0102C0E9DFFE014C
S1130950EF01219680818111F9CFDF91CF91089524
S11309601F93CF93DF93182F81B1816081B981B137
S1130970826081B981B1846081B981B1886081B9B3
S113098081B1806181B981B1806281B981B18064B2
S113099081B980E09DE70197F1F782B1806182B966
S11309A082B1886082B9F1DE80E097E20197F1F7C5
S11309B0ECDEC0E8D0E0CE010197F1F7E6DECE012F
S11309C00197F1F782B1877F82B9DFDE2197F1F7D2
S11309D088E293DF88E091DFA0DF86E08EDF812F5D
S11309E08CDFDF91CF911F9108958BB180588BB923
S11309F0089508958FDE8CE0B3DF8FDF71DE5ED063
S1130A0064EF71E085EF94E06DD08093000189EF8D
S1130A1094E093D0BCD080E090E008958AE10895FA
S1130A2087E0089589E0089589E0089589E00895AC
S1130A308AE008958AE008958AE008958AE0089596
S1130A408AE008958AE008958FE108958AE0089580
S1130A508AE008958BE008958BE008958CE0089572
S1130A608DE0089582E008958FE008958FE0089561
S1130A7080E1089583E0089583E1089584E1089571
S1130A8083E108958DE408958EE408958FE4089534
S1130A9082E1089582E1089582E1089585E508954B
S1130AA082E1089582E1089585E0089585E008953E
S1130AB088E1089588E1089586E0089580E009C0FA
S1130AC0E82FF0E0EE0FFF1FEE5FFE4F1182108261
S1130AD08F5F8A30A8F310921701109216011092BA
S1130AE05701089520E030E002C02F5F3F4FF90125
S1130AF0EE0FFF1FEE5FFE4F40815181452B19F031
S1130B002B30310590F32B303105A8F4A901440FA3
S1130B10551FFA01EE5FFE4F91838083FA01E15D78
S1130B20FE4F71836083FA01ED5BFE4F11821082E8
S1130B3081E0820F08958FEF0895909317018093B9
S1130B401601089590E016C08E1313C0F901EE0F3C
S1130B50FF1FE20FF31FE958FD4FE491E61309C0AC
S1130B60F901EE0FFF1FE20FF31FE858FD4F8491C8
S1130B7008959F5F292F30E0F901EE0FFF1FE20F68
S1130B80F31FEA58FD4FE491E111DECF089558D1E7
S1130B9070D181E0809319017894C12CD12CC3EBDE
S1130BA0D6E0EE24E39410E026C0212F30E0F901D2
S1130BB0EE0FFF1FEE5FFE4F0190F081E02D3097A6
S1130BC0C9F0C901880F991FDC01AD5BBE4F4D917F
S1130BD05C91DC01A15DBE4F8D919C914817590732
S1130BE048F0220F331FD901AD5BBE4F11961C9202
S1130BF01E9209951F5F1A30C0F280915701882315
S1130C0059F010925701E0911601F09117013097B5
S1130C1019F08AE191E00995209769F0F8947DDE56
S1130C2060E080E072DEBE0188E591E034D18ADEC6
S1130C307894C0E0D0E08091180110921801C1149A
S1130C40D10421F0F6010995E82E07C0882329F084
S1130C50682F8091190176DFE82E80911901E8163A
S1130C6009F4A1CFE092190120E016C0EE1213C0DE
S1130C70FC01EE0FFF1FEE0FFF1F8E0F9F1FFC01E5
S1130C80E357FF4FC591D49181579F4FFC010591C4
S1130C901491680188CF2F5F822F90E0FC01EE0F42
S1130CA0FF1FEE0FFF1FE80FF91FE457FF4FE491FA
S1130CB0E111DCCF78CF1F920F920FB60F9211245F
S1130CC00BB60F922F933F938F93EF93FF9383E889
S1130CD086BD80E00DC0E82FF0E0EE0FFF1FED5B56
S1130CE0FE4F208131812F5F3F4F318320838F5FFF
S1130CF08A3088F3FF91EF918F913F912F910F905C
S1130D000BBE0F900FBE0F901F9018951F920F925D
S1130D100FB60F9211240F900FBE0F901F901895CD
S1130D201F920F920FB60F9211240BB60F922F93AE
S1130D303F934F935F936F937F938F939F93AF935F
S1130D40BF93EF93FF93E0910101F0E08091C6001F
S1130D50E65EFE4F8083E0910101F0E0E65EFE4F27
S1130D6080818034E1F4E0910101F0E0E65EFE4F21
S1130D70808178D0E0910101EF5FE0930101F0E020
S1130D80E65EFE4F108281E08093570110920101CC
S1130D908DE068D08AE066D08EE364D010C0E09124
S1130DA00101F0E0E65EFE4F80815CD0809101019C
S1130DB08F5F80930101843110F010920101FF9143
S1130DC0EF91BF91AF919F918F917F916F915F91BF
S1130DD04F913F912F910F900BBE0F900FBE0F902C
S1130DE01F9018951F920F920FB60F9211248F9394
S1130DF086B1809583FF04C081E0809318011AC0F6
S1130E0084FF04C082E08093180114C085FF04C0ED
S1130E1083E0809318010EC086FF04C084E08093B1
S1130E20180108C0882324F485E08093180102C0C7
S1130E30109218018F910F900FBE0F901F9018956C
S1130E4014BC85B58B7F85BD85B5826085BD85B5B0
S1130E50816085BD83E886BDEEE6F0E08081816037
S1130E60808308959091C00095FFFCCF8093C600C5
S1130E700895E0ECF0E080818260808388E090E077
S1130E809093C5008093C40088E98093C10086E0F4
S1130E908093C2000895FB01DC0105900D920020AF
S10B0EA0E1F70895F894FFCF77
S9030000FC
